{
  "_format": "hh-sol-artifact-1",
  "contractName": "BillTracker",
  "sourceName": "contracts/BillTracker.sol",
  "abi": [
    {
      "inputs": [],
      "stateMutability": "nonpayable",
      "type": "constructor"
    },
    {
      "anonymous": false,
      "inputs": [
        {
          "indexed": true,
          "internalType": "address",
          "name": "user",
          "type": "address"
        },
        {
          "indexed": true,
          "internalType": "uint256",
          "name": "billId",
          "type": "uint256"
        },
        {
          "indexed": false,
          "internalType": "string",
          "name": "name",
          "type": "string"
        },
        {
          "indexed": false,
          "internalType": "uint256",
          "name": "previousAmount",
          "type": "uint256"
        },
        {
          "indexed": false,
          "internalType": "uint256",
          "name": "currentAmount",
          "type": "uint256"
        },
        {
          "indexed": false,
          "internalType": "uint256",
          "name": "increasePercent",
          "type": "uint256"
        }
      ],
      "name": "AbnormalIncreaseAlert",
      "type": "event"
    },
    {
      "anonymous": false,
      "inputs": [
        {
          "indexed": true,
          "internalType": "address",
          "name": "user",
          "type": "address"
        },
        {
          "indexed": true,
          "internalType": "uint256",
          "name": "billId",
          "type": "uint256"
        },
        {
          "indexed": false,
          "internalType": "string",
          "name": "name",
          "type": "string"
        },
        {
          "indexed": false,
          "internalType": "uint256",
          "name": "amount",
          "type": "uint256"
        },
        {
          "indexed": false,
          "internalType": "uint256",
          "name": "paidAt",
          "type": "uint256"
        }
      ],
      "name": "BillPaid",
      "type": "event"
    },
    {
      "anonymous": false,
      "inputs": [
        {
          "indexed": true,
          "internalType": "address",
          "name": "user",
          "type": "address"
        },
        {
          "indexed": true,
          "internalType": "uint256",
          "name": "billId",
          "type": "uint256"
        },
        {
          "indexed": false,
          "internalType": "string",
          "name": "name",
          "type": "string"
        },
        {
          "indexed": false,
          "internalType": "uint256",
          "name": "amount",
          "type": "uint256"
        },
        {
          "indexed": false,
          "internalType": "uint256",
          "name": "dueDate",
          "type": "uint256"
        }
      ],
      "name": "BillRegistered",
      "type": "event"
    },
    {
      "anonymous": false,
      "inputs": [
        {
          "indexed": true,
          "internalType": "address",
          "name": "user",
          "type": "address"
        },
        {
          "indexed": true,
          "internalType": "uint256",
          "name": "billId",
          "type": "uint256"
        },
        {
          "indexed": false,
          "internalType": "string",
          "name": "name",
          "type": "string"
        },
        {
          "indexed": false,
          "internalType": "uint256",
          "name": "amount",
          "type": "uint256"
        },
        {
          "indexed": false,
          "internalType": "string",
          "name": "message",
          "type": "string"
        }
      ],
      "name": "BudgetWarning",
      "type": "event"
    },
    {
      "anonymous": false,
      "inputs": [
        {
          "indexed": true,
          "internalType": "address",
          "name": "user",
          "type": "address"
        },
        {
          "indexed": true,
          "internalType": "uint256",
          "name": "billId",
          "type": "uint256"
        },
        {
          "indexed": false,
          "internalType": "string",
          "name": "name",
          "type": "string"
        },
        {
          "indexed": false,
          "internalType": "uint256",
          "name": "dueDate",
          "type": "uint256"
        },
        {
          "indexed": false,
          "internalType": "uint256",
          "name": "daysRemaining",
          "type": "uint256"
        }
      ],
      "name": "DueSoonAlert",
      "type": "event"
    },
    {
      "anonymous": false,
      "inputs": [
        {
          "indexed": true,
          "internalType": "address",
          "name": "user",
          "type": "address"
        },
        {
          "indexed": true,
          "internalType": "uint256",
          "name": "billId",
          "type": "uint256"
        },
        {
          "indexed": false,
          "internalType": "string",
          "name": "name",
          "type": "string"
        },
        {
          "indexed": false,
          "internalType": "uint256",
          "name": "amount",
          "type": "uint256"
        },
        {
          "indexed": false,
          "internalType": "string",
          "name": "message",
          "type": "string"
        }
      ],
      "name": "HighUsageAlert",
      "type": "event"
    },
    {
      "inputs": [],
      "name": "HIGH_USAGE_THRESHOLD",
      "outputs": [
        {
          "internalType": "uint256",
          "name": "",
          "type": "uint256"
        }
      ],
      "stateMutability": "view",
      "type": "function"
    },
    {
      "inputs": [],
      "name": "SPIKE_THRESHOLD_PCT",
      "outputs": [
        {
          "internalType": "uint256",
          "name": "",
          "type": "uint256"
        }
      ],
      "stateMutability": "view",
      "type": "function"
    },
    {
      "inputs": [
        {
          "internalType": "address",
          "name": "",
          "type": "address"
        }
      ],
      "name": "billCount",
      "outputs": [
        {
          "internalType": "uint256",
          "name": "",
          "type": "uint256"
        }
      ],
      "stateMutability": "view",
      "type": "function"
    },
    {
      "inputs": [
        {
          "internalType": "address",
          "name": "",
          "type": "address"
        },
        {
          "internalType": "uint256",
          "name": "",
          "type": "uint256"
        }
      ],
      "name": "bills",
      "outputs": [
        {
          "internalType": "string",
          "name": "name",
          "type": "string"
        },
        {
          "internalType": "uint256",
          "name": "amount",
          "type": "uint256"
        },
        {
          "internalType": "uint256",
          "name": "previousAmount",
          "type": "uint256"
        },
        {
          "internalType": "uint256",
          "name": "dueDate",
          "type": "uint256"
        },
        {
          "internalType": "uint256",
          "name": "registeredAt",
          "type": "uint256"
        },
        {
          "internalType": "bool",
          "name": "paid",
          "type": "bool"
        },
        {
          "internalType": "bool",
          "name": "alertFired",
          "type": "bool"
        },
        {
          "internalType": "uint8",
          "name": "alertDaysBefore",
          "type": "uint8"
        }
      ],
      "stateMutability": "view",
      "type": "function"
    },
    {
      "inputs": [
        {
          "internalType": "address",
          "name": "user",
          "type": "address"
        },
        {
          "internalType": "uint256",
          "name": "billId",
          "type": "uint256"
        }
      ],
      "name": "checkAlerts",
      "outputs": [],
      "stateMutability": "nonpayable",
      "type": "function"
    },
    {
      "inputs": [
        {
          "internalType": "address",
          "name": "user",
          "type": "address"
        },
        {
          "internalType": "uint256",
          "name": "billId",
          "type": "uint256"
        }
      ],
      "name": "getBill",
      "outputs": [
        {
          "components": [
            {
              "internalType": "string",
              "name": "name",
              "type": "string"
            },
            {
              "internalType": "uint256",
              "name": "amount",
              "type": "uint256"
            },
            {
              "internalType": "uint256",
              "name": "previousAmount",
              "type": "uint256"
            },
            {
              "internalType": "uint256",
              "name": "dueDate",
              "type": "uint256"
            },
            {
              "internalType": "uint256",
              "name": "registeredAt",
              "type": "uint256"
            },
            {
              "internalType": "bool",
              "name": "paid",
              "type": "bool"
            },
            {
              "internalType": "bool",
              "name": "alertFired",
              "type": "bool"
            },
            {
              "internalType": "uint8",
              "name": "alertDaysBefore",
              "type": "uint8"
            }
          ],
          "internalType": "struct BillTracker.Bill",
          "name": "",
          "type": "tuple"
        }
      ],
      "stateMutability": "view",
      "type": "function"
    },
    {
      "inputs": [
        {
          "internalType": "address",
          "name": "user",
          "type": "address"
        },
        {
          "internalType": "uint256",
          "name": "billId",
          "type": "uint256"
        }
      ],
      "name": "isAbnormalIncrease",
      "outputs": [
        {
          "internalType": "bool",
          "name": "",
          "type": "bool"
        },
        {
          "internalType": "uint256",
          "name": "increasePercent",
          "type": "uint256"
        }
      ],
      "stateMutability": "view",
      "type": "function"
    },
    {
      "inputs": [
        {
          "internalType": "address",
          "name": "user",
          "type": "address"
        },
        {
          "internalType": "uint256",
          "name": "billId",
          "type": "uint256"
        }
      ],
      "name": "isDueSoon",
      "outputs": [
        {
          "internalType": "bool",
          "name": "",
          "type": "bool"
        },
        {
          "internalType": "uint256",
          "name": "daysRemaining",
          "type": "uint256"
        }
      ],
      "stateMutability": "view",
      "type": "function"
    },
    {
      "inputs": [
        {
          "internalType": "address",
          "name": "user",
          "type": "address"
        },
        {
          "internalType": "uint256",
          "name": "billId",
          "type": "uint256"
        }
      ],
      "name": "isHighUsage",
      "outputs": [
        {
          "internalType": "bool",
          "name": "",
          "type": "bool"
        }
      ],
      "stateMutability": "view",
      "type": "function"
    },
    {
      "inputs": [
        {
          "internalType": "uint256",
          "name": "billId",
          "type": "uint256"
        }
      ],
      "name": "markPaid",
      "outputs": [],
      "stateMutability": "nonpayable",
      "type": "function"
    },
    {
      "inputs": [],
      "name": "owner",
      "outputs": [
        {
          "internalType": "address",
          "name": "",
          "type": "address"
        }
      ],
      "stateMutability": "view",
      "type": "function"
    },
    {
      "inputs": [
        {
          "internalType": "string",
          "name": "name",
          "type": "string"
        },
        {
          "internalType": "uint256",
          "name": "amount",
          "type": "uint256"
        },
        {
          "internalType": "uint256",
          "name": "previousAmount",
          "type": "uint256"
        },
        {
          "internalType": "uint256",
          "name": "dueDateTimestamp",
          "type": "uint256"
        },
        {
          "internalType": "uint8",
          "name": "alertDaysBefore",
          "type": "uint8"
        }
      ],
      "name": "registerBill",
      "outputs": [
        {
          "internalType": "uint256",
          "name": "billId",
          "type": "uint256"
        }
      ],
      "stateMutability": "nonpayable",
      "type": "function"
    },
    {
      "inputs": [
        {
          "internalType": "uint256",
          "name": "billId",
          "type": "uint256"
        },
        {
          "internalType": "uint256",
          "name": "newAmount",
          "type": "uint256"
        },
        {
          "internalType": "uint256",
          "name": "newDueDate",
          "type": "uint256"
        }
      ],
      "name": "updateAmount",
      "outputs": [],
      "stateMutability": "nonpayable",
      "type": "function"
    }
  ],
  "bytecode": "0x608060405234801561000f575f80fd5b505f80546001600160a01b031916331790556112ea8061002e5f395ff3fe608060405234801561000f575f80fd5b50600436106100cb575f3560e01c80638f6fa0b211610088578063ad207e1e11610063578063ad207e1e146101ef578063cd22542914610202578063d71be97114610215578063e65f346a14610228575f80fd5b80638f6fa0b21461019d578063923c12dd146101c45780639b5851d9146101e7575f80fd5b80630ccb8d22146100cf57806333d8c5f9146100fe5780635d7f0a2e1461011157806373b95c0914610131578063833e3890146101465780638da5cb5b14610173575b5f80fd5b6100e26100dd366004610c5e565b610232565b6040805192151583526020830191909152015b60405180910390f35b6100e261010c366004610c5e565b61030a565b61012461011f366004610c5e565b6103d1565b6040516100f59190610cc9565b61014461013f366004610d46565b61056e565b005b610165610154366004610d6f565b60026020525f908152604090205481565b6040519081526020016100f5565b5f54610185906001600160a01b031681565b6040516001600160a01b0390911681526020016100f5565b6101b06101ab366004610c5e565b6105eb565b6040516100f5989796959493929190610d8f565b6101d76101d2366004610c5e565b6106c6565b60405190151581526020016100f5565b610165601481565b6101446101fd366004610de0565b610733565b610165610210366004610e1b565b61082a565b610144610223366004610c5e565b610990565b61016562030d4081565b6001600160a01b0382165f9081526002602052604081205481908490849081106102775760405162461bcd60e51b815260040161026e90610ef2565b60405180910390fd5b6001600160a01b0386165f908152600160209081526040808320888452909152812060028101549091036102b1575f809450945050610301565b80600201548160010154116102cc575f809450945050610301565b600281015460018201546102e1908290610f3d565b6102ec906064610f56565b6102f69190610f6d565b935060148410159450505b50509250929050565b6001600160a01b0382165f9081526002602052604081205481908490849081106103465760405162461bcd60e51b815260040161026e90610ef2565b6001600160a01b0386165f9081526001602090815260408083208884529091529020600581015460ff168061037f575080600301544210155b15610390575f809450945050610301565b5f4282600301546103a19190610f3d565b90506103b06201518082610f6d565b6005929092015462010000900460ff16821115989197509095505050505050565b610419604051806101000160405280606081526020015f81526020015f81526020015f81526020015f81526020015f151581526020015f151581526020015f60ff1681525090565b6001600160a01b0383165f908152600260205260409020548390839081106104535760405162461bcd60e51b815260040161026e90610ef2565b6001600160a01b0385165f908152600160209081526040808320878452909152908190208151610100810190925280548290829061049090610f8c565b80601f01602080910402602001604051908101604052809291908181526020018280546104bc90610f8c565b80156105075780601f106104de57610100808354040283529160200191610507565b820191905f5260205f20905b8154815290600101906020018083116104ea57829003601f168201915b50505091835250506001820154602082015260028201546040820152600382015460608201526004820154608082015260059091015460ff808216151560a084015261010082048116151560c0840152620100009091041660e09091015295945050505050565b335f818152600260205260409020548490811061059d5760405162461bcd60e51b815260040161026e90610ef2565b335f8181526001602081815260408084208a8552909152909120908101805460028301558690556003810185905560058101805461ffff19169055906105e390876109da565b505050505050565b600160209081525f928352604080842090915290825290208054819061061090610f8c565b80601f016020809104026020016040519081016040528092919081815260200182805461063c90610f8c565b80156106875780601f1061065e57610100808354040283529160200191610687565b820191905f5260205f20905b81548152906001019060200180831161066a57829003601f168201915b505050600184015460028501546003860154600487015460059097015495969295919450925060ff808216916101008104821691620100009091041688565b6001600160a01b0382165f908152600260205260408120548390839081106107005760405162461bcd60e51b815260040161026e90610ef2565b5050506001600160a01b03919091165f908152600160208181526040808420948452939052919020015462030d40111590565b335f81815260026020526040902054829081106107625760405162461bcd60e51b815260040161026e90610ef2565b335f9081526001602090815260408083208684529091529020600581015460ff16156107d05760405162461bcd60e51b815260206004820152601960248201527f42696c6c547261636b65723a20616c7265616479207061696400000000000000604482015260640161026e565b60058101805460ff19166001908117909155810154604051859133917f7ab2f3cbf920353f16835d55cacf7db08261fb3ab6bedfa4dbd2236dd922595b9161081c91869190429061103d565b60405180910390a350505050565b335f818152600260209081526040808320548151610100810183528a81528084018a90528083018990526060810188905242608082015260a0810185905260c0810185905260ff871660e0820152948452600183528184208185529092529091208251919291819061089c90826110ad565b506020828101516001830155604080840151600280850191909155606085015160038501556080850151600485015560a08501516005909401805460c087015160e09097015160ff16620100000262ff0000199715156101000261ff00199715159790971661ffff1990921691909117959095179590951693909317909355335f90815291905290812080549161093283611169565b919050555080336001600160a01b03167f1260810820963e7333da4fb9b34b6c79017ebf166beb37ca27b6d91e829d6d0a88888760405161097593929190611181565b60405180910390a361098733826109da565b95945050505050565b6001600160a01b0382165f908152600260205260409020548290829081106109ca5760405162461bcd60e51b815260040161026e90610ef2565b6109d484846109da565b50505050565b6001600160a01b0382165f9081526001602090815260408083208484529091529020600581015460ff1615610a0e57505050565b8060030154421015610acc575f428260030154610a2b9190610f3d565b90505f610a3b6201518083610f6d565b600584015490915062010000900460ff168111801590610a6557506005830154610100900460ff16155b15610ac95760058301805461ff001916610100179055600383015460405185916001600160a01b038816917f7c2fe7cd605158ce18dd2c72ae5854bdcf40b14b65f1acf3a0c206cdacc1525591610ac091889190879061103d565b60405180910390a35b50505b62030d40816001015410610b255781836001600160a01b03167fcfbfcf0090ccb2b44bf5f69c09e33565b41b0b660301f881e4e682266cc1dbb2835f018460010154604051610b1c929190611193565b60405180910390a35b5f8160020154118015610b3f575080600201548160010154115b15610bd057600281015460018201545f9190610b5c908290610f3d565b610b67906064610f56565b610b719190610f6d565b905060148110610bce5782846001600160a01b03167f654a2df4f2ab46f5d1f96fde8b0d5c4c11c4c6303e714eb7e1092ef130c88177845f018560020154866001015486604051610bc59493929190611208565b60405180910390a35b505b5f610bdf62030d406002610f56565b9050610bec816050610f56565b6001830154610bfc906064610f56565b106109d45782846001600160a01b03167f28b63540c293a4bd35e9540b839f9444987c829dbe50d2abd30b84ca4d8d3b3f845f01856001015460405161081c929190611236565b80356001600160a01b0381168114610c59575f80fd5b919050565b5f8060408385031215610c6f575f80fd5b610c7883610c43565b946020939093013593505050565b5f81518084525f5b81811015610caa57602081850181015186830182015201610c8e565b505f602082860101526020601f19601f83011685010191505092915050565b602081525f8251610100806020850152610ce7610120850183610c86565b9150602085015160408501526040850151606085015260608501516080850152608085015160a085015260a0850151151560c085015260c0850151151560e085015260e0850151610d3c8286018260ff169052565b5090949350505050565b5f805f60608486031215610d58575f80fd5b505081359360208301359350604090920135919050565b5f60208284031215610d7f575f80fd5b610d8882610c43565b9392505050565b5f610100808352610da28184018c610c86565b602084019a909a525050604081019690965260608601949094526080850192909252151560a0840152151560c083015260ff1660e090910152919050565b5f60208284031215610df0575f80fd5b5035919050565b634e487b7160e01b5f52604160045260245ffd5b803560ff81168114610c59575f80fd5b5f805f805f60a08688031215610e2f575f80fd5b853567ffffffffffffffff80821115610e46575f80fd5b818801915088601f830112610e59575f80fd5b813581811115610e6b57610e6b610df7565b604051601f8201601f19908116603f01168101908382118183101715610e9357610e93610df7565b816040528281528b6020848701011115610eab575f80fd5b826020860160208301375f602084830101528099505050505050602086013593506040860135925060608601359150610ee660808701610e0b565b90509295509295909350565b6020808252601b908201527f42696c6c547261636b65723a2062696c6c206e6f7420666f756e640000000000604082015260600190565b634e487b7160e01b5f52601160045260245ffd5b81810381811115610f5057610f50610f29565b92915050565b8082028115828204841417610f5057610f50610f29565b5f82610f8757634e487b7160e01b5f52601260045260245ffd5b500490565b600181811c90821680610fa057607f821691505b602082108103610fbe57634e487b7160e01b5f52602260045260245ffd5b50919050565b5f8154610fd081610f8c565b808552602060018381168015610fed576001811461100757611032565b60ff1985168884015283151560051b880183019550611032565b865f52825f205f5b8581101561102a5781548a820186015290830190840161100f565b890184019650505b505050505092915050565b606081525f61104f6060830186610fc4565b60208301949094525060400152919050565b601f8211156110a857805f5260205f20601f840160051c810160208510156110865750805b601f840160051c820191505b818110156110a5575f8155600101611092565b50505b505050565b815167ffffffffffffffff8111156110c7576110c7610df7565b6110db816110d58454610f8c565b84611061565b602080601f83116001811461110e575f84156110f75750858301515b5f19600386901b1c1916600185901b1785556105e3565b5f85815260208120601f198616915b8281101561113c5788860151825594840194600190910190840161111d565b508582101561115957878501515f19600388901b60f8161c191681555b5050505050600190811b01905550565b5f6001820161117a5761117a610f29565b5060010190565b606081525f61104f6060830186610c86565b606081525f6111a56060830185610fc4565b8360208401528281036040840152603481527f42696c6c20616d6f756e74206578636565647320686967682d75736167652074602082015273343932b9b437b6321037b310191818181024a72960611b6040820152606081019150509392505050565b608081525f61121a6080830187610fc4565b6020830195909552506040810192909252606090910152919050565b606081525f6112486060830185610fc4565b8360208401528281036040840152604081527f42696c6c20697320636f6e73756d696e67206d6f7265207468616e203830252060208201527f6f6620796f757220657374696d61746564206d6f6e74686c7920627564676574604082015260608101915050939250505056fea2646970667358221220b40e903686184d6ec4729504d1b04086f43c60d0fb5fe5dc3095d4e17d053ed664736f6c63430008180033",
  "linkReferences": {},
  "deployedLinkReferences": {}
}