{
  "_format": "hh-sol-artifact-1",
  "contractName": "NFTReceipt",
  "sourceName": "contracts/NFTReceipt.sol",
  "abi": [
    {
      "inputs": [],
      "stateMutability": "nonpayable",
      "type": "constructor"
    },
    {
      "inputs": [
        {
          "internalType": "address",
          "name": "sender",
          "type": "address"
        },
        {
          "internalType": "uint256",
          "name": "tokenId",
          "type": "uint256"
        },
        {
          "internalType": "address",
          "name": "owner",
          "type": "address"
        }
      ],
      "name": "ERC721IncorrectOwner",
      "type": "error"
    },
    {
      "inputs": [
        {
          "internalType": "address",
          "name": "operator",
          "type": "address"
        },
        {
          "internalType": "uint256",
          "name": "tokenId",
          "type": "uint256"
        }
      ],
      "name": "ERC721InsufficientApproval",
      "type": "error"
    },
    {
      "inputs": [
        {
          "internalType": "address",
          "name": "approver",
          "type": "address"
        }
      ],
      "name": "ERC721InvalidApprover",
      "type": "error"
    },
    {
      "inputs": [
        {
          "internalType": "address",
          "name": "operator",
          "type": "address"
        }
      ],
      "name": "ERC721InvalidOperator",
      "type": "error"
    },
    {
      "inputs": [
        {
          "internalType": "address",
          "name": "owner",
          "type": "address"
        }
      ],
      "name": "ERC721InvalidOwner",
      "type": "error"
    },
    {
      "inputs": [
        {
          "internalType": "address",
          "name": "receiver",
          "type": "address"
        }
      ],
      "name": "ERC721InvalidReceiver",
      "type": "error"
    },
    {
      "inputs": [
        {
          "internalType": "address",
          "name": "sender",
          "type": "address"
        }
      ],
      "name": "ERC721InvalidSender",
      "type": "error"
    },
    {
      "inputs": [
        {
          "internalType": "uint256",
          "name": "tokenId",
          "type": "uint256"
        }
      ],
      "name": "ERC721NonexistentToken",
      "type": "error"
    },
    {
      "inputs": [
        {
          "internalType": "address",
          "name": "owner",
          "type": "address"
        }
      ],
      "name": "OwnableInvalidOwner",
      "type": "error"
    },
    {
      "inputs": [
        {
          "internalType": "address",
          "name": "account",
          "type": "address"
        }
      ],
      "name": "OwnableUnauthorizedAccount",
      "type": "error"
    },
    {
      "anonymous": false,
      "inputs": [
        {
          "indexed": true,
          "internalType": "address",
          "name": "owner",
          "type": "address"
        },
        {
          "indexed": true,
          "internalType": "address",
          "name": "approved",
          "type": "address"
        },
        {
          "indexed": true,
          "internalType": "uint256",
          "name": "tokenId",
          "type": "uint256"
        }
      ],
      "name": "Approval",
      "type": "event"
    },
    {
      "anonymous": false,
      "inputs": [
        {
          "indexed": true,
          "internalType": "address",
          "name": "owner",
          "type": "address"
        },
        {
          "indexed": true,
          "internalType": "address",
          "name": "operator",
          "type": "address"
        },
        {
          "indexed": false,
          "internalType": "bool",
          "name": "approved",
          "type": "bool"
        }
      ],
      "name": "ApprovalForAll",
      "type": "event"
    },
    {
      "anonymous": false,
      "inputs": [
        {
          "indexed": false,
          "internalType": "uint256",
          "name": "_fromTokenId",
          "type": "uint256"
        },
        {
          "indexed": false,
          "internalType": "uint256",
          "name": "_toTokenId",
          "type": "uint256"
        }
      ],
      "name": "BatchMetadataUpdate",
      "type": "event"
    },
    {
      "anonymous": false,
      "inputs": [
        {
          "indexed": false,
          "internalType": "uint256",
          "name": "_tokenId",
          "type": "uint256"
        }
      ],
      "name": "MetadataUpdate",
      "type": "event"
    },
    {
      "anonymous": false,
      "inputs": [
        {
          "indexed": true,
          "internalType": "address",
          "name": "previousOwner",
          "type": "address"
        },
        {
          "indexed": true,
          "internalType": "address",
          "name": "newOwner",
          "type": "address"
        }
      ],
      "name": "OwnershipTransferred",
      "type": "event"
    },
    {
      "anonymous": false,
      "inputs": [
        {
          "indexed": true,
          "internalType": "uint256",
          "name": "tokenId",
          "type": "uint256"
        },
        {
          "indexed": true,
          "internalType": "address",
          "name": "buyer",
          "type": "address"
        },
        {
          "indexed": false,
          "internalType": "string",
          "name": "itemName",
          "type": "string"
        },
        {
          "indexed": false,
          "internalType": "uint256",
          "name": "amount",
          "type": "uint256"
        },
        {
          "indexed": false,
          "internalType": "uint256",
          "name": "warrantyExpiry",
          "type": "uint256"
        }
      ],
      "name": "ReceiptMinted",
      "type": "event"
    },
    {
      "anonymous": false,
      "inputs": [
        {
          "indexed": true,
          "internalType": "address",
          "name": "from",
          "type": "address"
        },
        {
          "indexed": true,
          "internalType": "address",
          "name": "to",
          "type": "address"
        },
        {
          "indexed": true,
          "internalType": "uint256",
          "name": "tokenId",
          "type": "uint256"
        }
      ],
      "name": "Transfer",
      "type": "event"
    },
    {
      "anonymous": false,
      "inputs": [
        {
          "indexed": true,
          "internalType": "uint256",
          "name": "tokenId",
          "type": "uint256"
        },
        {
          "indexed": true,
          "internalType": "address",
          "name": "buyer",
          "type": "address"
        }
      ],
      "name": "WarrantyClaimed",
      "type": "event"
    },
    {
      "anonymous": false,
      "inputs": [
        {
          "indexed": true,
          "internalType": "uint256",
          "name": "tokenId",
          "type": "uint256"
        }
      ],
      "name": "WarrantyExpired",
      "type": "event"
    },
    {
      "inputs": [
        {
          "internalType": "address",
          "name": "to",
          "type": "address"
        },
        {
          "internalType": "uint256",
          "name": "tokenId",
          "type": "uint256"
        }
      ],
      "name": "approve",
      "outputs": [],
      "stateMutability": "nonpayable",
      "type": "function"
    },
    {
      "inputs": [
        {
          "internalType": "address",
          "name": "owner",
          "type": "address"
        }
      ],
      "name": "balanceOf",
      "outputs": [
        {
          "internalType": "uint256",
          "name": "",
          "type": "uint256"
        }
      ],
      "stateMutability": "view",
      "type": "function"
    },
    {
      "inputs": [
        {
          "internalType": "uint256",
          "name": "tokenId",
          "type": "uint256"
        }
      ],
      "name": "claimWarranty",
      "outputs": [],
      "stateMutability": "nonpayable",
      "type": "function"
    },
    {
      "inputs": [
        {
          "internalType": "uint256",
          "name": "tokenId",
          "type": "uint256"
        }
      ],
      "name": "getApproved",
      "outputs": [
        {
          "internalType": "address",
          "name": "",
          "type": "address"
        }
      ],
      "stateMutability": "view",
      "type": "function"
    },
    {
      "inputs": [
        {
          "internalType": "uint256",
          "name": "tokenId",
          "type": "uint256"
        }
      ],
      "name": "getReceipt",
      "outputs": [
        {
          "components": [
            {
              "internalType": "string",
              "name": "itemName",
              "type": "string"
            },
            {
              "internalType": "uint256",
              "name": "amount",
              "type": "uint256"
            },
            {
              "internalType": "string",
              "name": "currency",
              "type": "string"
            },
            {
              "internalType": "uint256",
              "name": "purchaseTimestamp",
              "type": "uint256"
            },
            {
              "internalType": "uint256",
              "name": "warrantyExpiry",
              "type": "uint256"
            },
            {
              "internalType": "address",
              "name": "buyer",
              "type": "address"
            },
            {
              "internalType": "bool",
              "name": "warrantyActive",
              "type": "bool"
            }
          ],
          "internalType": "struct NFTReceipt.Receipt",
          "name": "",
          "type": "tuple"
        }
      ],
      "stateMutability": "view",
      "type": "function"
    },
    {
      "inputs": [
        {
          "internalType": "address",
          "name": "user",
          "type": "address"
        }
      ],
      "name": "getUserReceipts",
      "outputs": [
        {
          "internalType": "uint256[]",
          "name": "",
          "type": "uint256[]"
        }
      ],
      "stateMutability": "view",
      "type": "function"
    },
    {
      "inputs": [
        {
          "internalType": "uint256",
          "name": "tokenId",
          "type": "uint256"
        }
      ],
      "name": "getWarrantyStatus",
      "outputs": [
        {
          "internalType": "bool",
          "name": "active",
          "type": "bool"
        },
        {
          "internalType": "bool",
          "name": "inGracePeriod",
          "type": "bool"
        },
        {
          "internalType": "uint256",
          "name": "daysRemaining",
          "type": "uint256"
        }
      ],
      "stateMutability": "view",
      "type": "function"
    },
    {
      "inputs": [
        {
          "internalType": "address",
          "name": "owner",
          "type": "address"
        },
        {
          "internalType": "address",
          "name": "operator",
          "type": "address"
        }
      ],
      "name": "isApprovedForAll",
      "outputs": [
        {
          "internalType": "bool",
          "name": "",
          "type": "bool"
        }
      ],
      "stateMutability": "view",
      "type": "function"
    },
    {
      "inputs": [
        {
          "internalType": "uint256",
          "name": "tokenId",
          "type": "uint256"
        }
      ],
      "name": "isWarrantyValid",
      "outputs": [
        {
          "internalType": "bool",
          "name": "",
          "type": "bool"
        }
      ],
      "stateMutability": "view",
      "type": "function"
    },
    {
      "inputs": [
        {
          "internalType": "uint256",
          "name": "tokenId",
          "type": "uint256"
        }
      ],
      "name": "markWarrantyExpired",
      "outputs": [],
      "stateMutability": "nonpayable",
      "type": "function"
    },
    {
      "inputs": [
        {
          "internalType": "address",
          "name": "buyer",
          "type": "address"
        },
        {
          "internalType": "string",
          "name": "itemName",
          "type": "string"
        },
        {
          "internalType": "uint256",
          "name": "amount",
          "type": "uint256"
        },
        {
          "internalType": "string",
          "name": "currency",
          "type": "string"
        },
        {
          "internalType": "uint256",
          "name": "warrantyMonths",
          "type": "uint256"
        },
        {
          "internalType": "string",
          "name": "tokenURI",
          "type": "string"
        }
      ],
      "name": "mintReceipt",
      "outputs": [
        {
          "internalType": "uint256",
          "name": "tokenId",
          "type": "uint256"
        }
      ],
      "stateMutability": "nonpayable",
      "type": "function"
    },
    {
      "inputs": [],
      "name": "name",
      "outputs": [
        {
          "internalType": "string",
          "name": "",
          "type": "string"
        }
      ],
      "stateMutability": "view",
      "type": "function"
    },
    {
      "inputs": [],
      "name": "owner",
      "outputs": [
        {
          "internalType": "address",
          "name": "",
          "type": "address"
        }
      ],
      "stateMutability": "view",
      "type": "function"
    },
    {
      "inputs": [
        {
          "internalType": "uint256",
          "name": "tokenId",
          "type": "uint256"
        }
      ],
      "name": "ownerOf",
      "outputs": [
        {
          "internalType": "address",
          "name": "",
          "type": "address"
        }
      ],
      "stateMutability": "view",
      "type": "function"
    },
    {
      "inputs": [
        {
          "internalType": "uint256",
          "name": "",
          "type": "uint256"
        }
      ],
      "name": "receipts",
      "outputs": [
        {
          "internalType": "string",
          "name": "itemName",
          "type": "string"
        },
        {
          "internalType": "uint256",
          "name": "amount",
          "type": "uint256"
        },
        {
          "internalType": "string",
          "name": "currency",
          "type": "string"
        },
        {
          "internalType": "uint256",
          "name": "purchaseTimestamp",
          "type": "uint256"
        },
        {
          "internalType": "uint256",
          "name": "warrantyExpiry",
          "type": "uint256"
        },
        {
          "internalType": "address",
          "name": "buyer",
          "type": "address"
        },
        {
          "internalType": "bool",
          "name": "warrantyActive",
          "type": "bool"
        }
      ],
      "stateMutability": "view",
      "type": "function"
    },
    {
      "inputs": [],
      "name": "renounceOwnership",
      "outputs": [],
      "stateMutability": "nonpayable",
      "type": "function"
    },
    {
      "inputs": [
        {
          "internalType": "address",
          "name": "from",
          "type": "address"
        },
        {
          "internalType": "address",
          "name": "to",
          "type": "address"
        },
        {
          "internalType": "uint256",
          "name": "tokenId",
          "type": "uint256"
        }
      ],
      "name": "safeTransferFrom",
      "outputs": [],
      "stateMutability": "nonpayable",
      "type": "function"
    },
    {
      "inputs": [
        {
          "internalType": "address",
          "name": "from",
          "type": "address"
        },
        {
          "internalType": "address",
          "name": "to",
          "type": "address"
        },
        {
          "internalType": "uint256",
          "name": "tokenId",
          "type": "uint256"
        },
        {
          "internalType": "bytes",
          "name": "data",
          "type": "bytes"
        }
      ],
      "name": "safeTransferFrom",
      "outputs": [],
      "stateMutability": "nonpayable",
      "type": "function"
    },
    {
      "inputs": [
        {
          "internalType": "address",
          "name": "operator",
          "type": "address"
        },
        {
          "internalType": "bool",
          "name": "approved",
          "type": "bool"
        }
      ],
      "name": "setApprovalForAll",
      "outputs": [],
      "stateMutability": "nonpayable",
      "type": "function"
    },
    {
      "inputs": [
        {
          "internalType": "bytes4",
          "name": "interfaceId",
          "type": "bytes4"
        }
      ],
      "name": "supportsInterface",
      "outputs": [
        {
          "internalType": "bool",
          "name": "",
          "type": "bool"
        }
      ],
      "stateMutability": "view",
      "type": "function"
    },
    {
      "inputs": [],
      "name": "symbol",
      "outputs": [
        {
          "internalType": "string",
          "name": "",
          "type": "string"
        }
      ],
      "stateMutability": "view",
      "type": "function"
    },
    {
      "inputs": [
        {
          "internalType": "uint256",
          "name": "tokenId",
          "type": "uint256"
        }
      ],
      "name": "tokenURI",
      "outputs": [
        {
          "internalType": "string",
          "name": "",
          "type": "string"
        }
      ],
      "stateMutability": "view",
      "type": "function"
    },
    {
      "inputs": [],
      "name": "totalMinted",
      "outputs": [
        {
          "internalType": "uint256",
          "name": "",
          "type": "uint256"
        }
      ],
      "stateMutability": "view",
      "type": "function"
    },
    {
      "inputs": [
        {
          "internalType": "address",
          "name": "from",
          "type": "address"
        },
        {
          "internalType": "address",
          "name": "to",
          "type": "address"
        },
        {
          "internalType": "uint256",
          "name": "tokenId",
          "type": "uint256"
        }
      ],
      "name": "transferFrom",
      "outputs": [],
      "stateMutability": "nonpayable",
      "type": "function"
    },
    {
      "inputs": [
        {
          "internalType": "address",
          "name": "newOwner",
          "type": "address"
        }
      ],
      "name": "transferOwnership",
      "outputs": [],
      "stateMutability": "nonpayable",
      "type": "function"
    },
    {
      "inputs": [
        {
          "internalType": "address",
          "name": "",
          "type": "address"
        },
        {
          "internalType": "uint256",
          "name": "",
          "type": "uint256"
        }
      ],
      "name": "userReceipts",
      "outputs": [
        {
          "internalType": "uint256",
          "name": "",
          "type": "uint256"
        }
      ],
      "stateMutability": "view",
      "type": "function"
    }
  ],
  "bytecode": "0x608060405234801562000010575f80fd5b50336040518060400160405280601581526020017f4175746f436861696e204e4654205265636569707400000000000000000000008152506040518060400160405280600481526020016320a1a72960e11b815250815f9081620000759190620001b6565b506001620000848282620001b6565b5050506001600160a01b038116620000b557604051631e4fbdf760e01b81525f600482015260240160405180910390fd5b620000c081620000c7565b5062000282565b600780546001600160a01b038381166001600160a01b0319831681179093556040519116919082907f8be0079c531659141344cd1fd0a4f28419497f9722a3daafe3b4186f6b6457e0905f90a35050565b634e487b7160e01b5f52604160045260245ffd5b600181811c908216806200014157607f821691505b6020821081036200016057634e487b7160e01b5f52602260045260245ffd5b50919050565b601f821115620001b157805f5260205f20601f840160051c810160208510156200018d5750805b601f840160051c820191505b81811015620001ae575f815560010162000199565b50505b505050565b81516001600160401b03811115620001d257620001d262000118565b620001ea81620001e384546200012c565b8462000166565b602080601f83116001811462000220575f8415620002085750858301515b5f19600386901b1c1916600185901b1785556200027a565b5f85815260208120601f198616915b8281101562000250578886015182559484019460019091019084016200022f565b50858210156200026e57878501515f19600388901b60f8161c191681555b505060018460011b0185555b505050505050565b611fc780620002905f395ff3fe608060405234801561000f575f80fd5b5060043610610187575f3560e01c80638da5cb5b116100d9578063ad7c92b711610093578063c87b56dd1161006e578063c87b56dd14610393578063e985e9c5146103a6578063f2fde38b146103b9578063fccc7723146103cc575f80fd5b8063ad7c92b71461034d578063b63e6ac314610360578063b88d4fde14610380575f80fd5b80638da5cb5b146102e657806395d89b41146102f75780639e19bb59146102ff578063a22cb4651461031f578063a2309ff814610332578063a843c5fe1461033a575f80fd5b8063181b23f3116101445780636072f9ac1161011f5780636072f9ac1461027a5780636352211e146102aa57806370a08231146102bd578063715018a6146102de575f80fd5b8063181b23f31461024157806323b872dd1461025457806342842e0e14610267575f80fd5b806301ffc9a71461018b57806306fdde03146101b3578063081812fc146101c8578063095ea7b3146101f35780630f7ee1ec14610208578063173d52401461022e575b5f80fd5b61019e610199366004611889565b6103df565b60405190151581526020015b60405180910390f35b6101bb610409565b6040516101aa91906118f1565b6101db6101d6366004611903565b610498565b6040516001600160a01b0390911681526020016101aa565b610206610201366004611935565b6104bf565b005b61021b610216366004611903565b6104ce565b6040516101aa979695949392919061195d565b61019e61023c366004611903565b610624565b61020661024f366004611903565b610667565b6102066102623660046119b9565b610769565b6102066102753660046119b9565b6107f2565b61028d610288366004611903565b610811565b6040805193151584529115156020840152908201526060016101aa565b6101db6102b8366004611903565b6108aa565b6102d06102cb3660046119f2565b6108b4565b6040519081526020016101aa565b6102066108f9565b6007546001600160a01b03166101db565b6101bb61090c565b61031261030d3660046119f2565b61091b565b6040516101aa9190611a0b565b61020661032d366004611a4e565b610984565b6008546102d0565b6102d0610348366004611935565b61098f565b6102d061035b366004611b2c565b6109ba565b61037361036e366004611903565b610b42565b6040516101aa9190611bd0565b61020661038e366004611c52565b610d2a565b6101bb6103a1366004611903565b610d42565b61019e6103b4366004611cc9565b610dc3565b6102066103c73660046119f2565b610df0565b6102066103da366004611903565b610e2d565b5f6001600160e01b03198216632483248360e11b1480610403575061040382610f6b565b92915050565b60605f805461041790611cfa565b80601f016020809104026020016040519081016040528092919081815260200182805461044390611cfa565b801561048e5780601f106104655761010080835404028352916020019161048e565b820191905f5260205f20905b81548152906001019060200180831161047157829003601f168201915b5050505050905090565b5f6104a282610fba565b505f828152600460205260409020546001600160a01b0316610403565b6104ca828233610ff2565b5050565b60096020525f90815260409020805481906104e890611cfa565b80601f016020809104026020016040519081016040528092919081815260200182805461051490611cfa565b801561055f5780601f106105365761010080835404028352916020019161055f565b820191905f5260205f20905b81548152906001019060200180831161054257829003601f168201915b50505050509080600101549080600201805461057a90611cfa565b80601f01602080910402602001604051908101604052809291908181526020018280546105a690611cfa565b80156105f15780601f106105c8576101008083540402835291602001916105f1565b820191905f5260205f20905b8154815290600101906020018083116105d457829003601f168201915b5050505060038301546004840154600590940154929390929091506001600160a01b03811690600160a01b900460ff1687565b5f600854821061064f5760405162461bcd60e51b815260040161064690611d32565b60405180910390fd5b505f9081526009602052604090206004015442111590565b60085481106106885760405162461bcd60e51b815260040161064690611d32565b5f818152600960205260409020600481015442116106df5760405162461bcd60e51b815260206004820152601460248201527315d85c9c985b9d1e481cdd1a5b1b081d985b1a5960621b6044820152606401610646565b6005810154600160a01b900460ff1661072c5760405162461bcd60e51b815260206004820152600f60248201526e105b1c9958591e48195e1c1a5c9959608a1b6044820152606401610646565b60058101805460ff60a01b1916905560405182907fd1f805bc7ef34eea72e1aadcbe1e5c72f9ee02935fb98be195d6b729e0a157ac905f90a25050565b6001600160a01b03821661079257604051633250574960e11b81525f6004820152602401610646565b5f61079e838333610fff565b9050836001600160a01b0316816001600160a01b0316146107ec576040516364283d7b60e01b81526001600160a01b0380861660048301526024820184905282166044820152606401610646565b50505050565b61080c83838360405180602001604052805f815250610d2a565b505050565b5f805f60085484106108355760405162461bcd60e51b815260040161064690611d32565b5f848152600960205260409020600481015442111561085d575f805f935093509350506108a3565b5f42826004015461086e9190611d74565b600583015490915062278d00908183111590600160a01b900460ff16816108986201518086611d87565b965096509650505050505b9193909250565b5f61040382610fba565b5f6001600160a01b0382166108de576040516322718ad960e21b81525f6004820152602401610646565b506001600160a01b03165f9081526003602052604090205490565b6109016110f1565b61090a5f61111e565b565b60606001805461041790611cfa565b6001600160a01b0381165f908152600a602090815260409182902080548351818402810184019094528084526060939283018282801561097857602002820191905f5260205f20905b815481526020019060010190808311610964575b50505050509050919050565b6104ca33838361116f565b600a602052815f5260405f2081815481106109a8575f80fd5b905f5260205f20015f91509150505481565b5f6109c36110f1565b60088054905f6109d283611da6565b9091555090505f6109e68462278d00611dbe565b6109f09042611dd5565b6040805160e08101825289815260208082018a9052818301899052426060830152608082018490526001600160a01b038c1660a0830152600160c08301525f868152600990915291909120815192935090918190610a4e9082611e2c565b506020820151600182015560408201516002820190610a6d9082611e2c565b50606082015160038201556080820151600482015560a08201516005909101805460c0909301511515600160a01b026001600160a81b03199093166001600160a01b03928316179290921790915588165f908152600a6020908152604082208054600181018255908352912001829055610ae78883611236565b610af1828461124f565b876001600160a01b0316827f66a22854fab6d250d32086795b2603631a263a47a5cd6fd08378833540cbcd36898985604051610b2f93929190611ee8565b60405180910390a3509695505050505050565b610b886040518060e00160405280606081526020015f8152602001606081526020015f81526020015f81526020015f6001600160a01b031681526020015f151581525090565b6008548210610ba95760405162461bcd60e51b815260040161064690611d32565b5f8281526009602052604090819020815160e08101909252805482908290610bd090611cfa565b80601f0160208091040260200160405190810160405280929190818152602001828054610bfc90611cfa565b8015610c475780601f10610c1e57610100808354040283529160200191610c47565b820191905f5260205f20905b815481529060010190602001808311610c2a57829003601f168201915b5050505050815260200160018201548152602001600282018054610c6a90611cfa565b80601f0160208091040260200160405190810160405280929190818152602001828054610c9690611cfa565b8015610ce15780601f10610cb857610100808354040283529160200191610ce1565b820191905f5260205f20905b815481529060010190602001808311610cc457829003601f168201915b505050918352505060038201546020820152600482015460408201526005909101546001600160a01b0381166060830152600160a01b900460ff16151560809091015292915050565b610d35848484610769565b6107ec338585858561129e565b6060610d4d82610fba565b505f610d6360408051602081019091525f815290565b90505f610d6f846113c6565b905081515f03610d80579392505050565b805115610db2578181604051602001610d9a929190611f0c565b60405160208183030381529060405292505050919050565b610dbb8461145b565b949350505050565b6001600160a01b039182165f90815260056020908152604080832093909416825291909152205460ff1690565b610df86110f1565b6001600160a01b038116610e2157604051631e4fbdf760e01b81525f6004820152602401610646565b610e2a8161111e565b50565b33610e37826108aa565b6001600160a01b031614610e7d5760405162461bcd60e51b815260206004820152600d60248201526c2737ba1027232a1037bbb732b960991b6044820152606401610646565b5f8181526009602052604090206005810154600160a01b900460ff16610ee55760405162461bcd60e51b815260206004820152601860248201527f57617272616e747920616c726561647920636c61696d656400000000000000006044820152606401610646565b8060040154421115610f2c5760405162461bcd60e51b815260206004820152601060248201526f15d85c9c985b9d1e48195e1c1a5c995960821b6044820152606401610646565b60058101805460ff60a01b19169055604051339083907f65c3bc751d02875c3da9641c419927769538dcf8d38082a94fdc1ee2b8e4543a905f90a35050565b5f6001600160e01b031982166380ac58cd60e01b1480610f9b57506001600160e01b03198216635b5e139f60e01b145b8061040357506301ffc9a760e01b6001600160e01b0319831614610403565b5f818152600260205260408120546001600160a01b03168061040357604051637e27328960e01b815260048101849052602401610646565b61080c83838360016114cc565b5f828152600260205260408120546001600160a01b039081169083161561102b5761102b8184866115d0565b6001600160a01b03811615611065576110465f855f806114cc565b6001600160a01b0381165f90815260036020526040902080545f190190555b6001600160a01b03851615611093576001600160a01b0385165f908152600360205260409020805460010190555b5f8481526002602052604080822080546001600160a01b0319166001600160a01b0389811691821790925591518793918516917fddf252ad1be2c89b69c2b068fc378daa952ba7f163c4a11628f55a4df523b3ef91a4949350505050565b6007546001600160a01b0316331461090a5760405163118cdaa760e01b8152336004820152602401610646565b600780546001600160a01b038381166001600160a01b0319831681179093556040519116919082907f8be0079c531659141344cd1fd0a4f28419497f9722a3daafe3b4186f6b6457e0905f90a35050565b6001600160a01b0383166111985760405163a9fbf51f60e01b81525f6004820152602401610646565b6001600160a01b0382166111ca57604051630b61174360e31b81526001600160a01b0383166004820152602401610646565b6001600160a01b038381165f81815260056020908152604080832094871680845294825291829020805460ff191686151590811790915591519182527f17307eab39ab6107e8899845ad3d59bd9653f200f220920489ca2b5937696c31910160405180910390a3505050565b6104ca828260405180602001604052805f815250611634565b5f8281526006602052604090206112668282611e2c565b506040518281527ff8e1a15aba9398e019f0b49df1a4fde98ee17ae345cb5f6b5e2c27f5033e8ce79060200160405180910390a15050565b6001600160a01b0383163b156113bf57604051630a85bd0160e11b81526001600160a01b0384169063150b7a02906112e0908890889087908790600401611f3a565b6020604051808303815f875af192505050801561131a575060408051601f3d908101601f1916820190925261131791810190611f76565b60015b611381573d808015611347576040519150601f19603f3d011682016040523d82523d5f602084013e61134c565b606091505b5080515f0361137957604051633250574960e11b81526001600160a01b0385166004820152602401610646565b805160208201fd5b6001600160e01b03198116630a85bd0160e11b146113bd57604051633250574960e11b81526001600160a01b0385166004820152602401610646565b505b5050505050565b5f8181526006602052604090208054606091906113e290611cfa565b80601f016020809104026020016040519081016040528092919081815260200182805461140e90611cfa565b80156109785780601f1061143057610100808354040283529160200191610978565b820191905f5260205f20905b81548152906001019060200180831161143c5750939695505050505050565b606061146682610fba565b505f61147c60408051602081019091525f815290565b90505f81511161149a5760405180602001604052805f8152506114c5565b806114a48461164b565b6040516020016114b5929190611f0c565b6040516020818303038152906040525b9392505050565b80806114e057506001600160a01b03821615155b156115a1575f6114ef84610fba565b90506001600160a01b0383161580159061151b5750826001600160a01b0316816001600160a01b031614155b801561152e575061152c8184610dc3565b155b156115575760405163a9fbf51f60e01b81526001600160a01b0384166004820152602401610646565b811561159f5783856001600160a01b0316826001600160a01b03167f8c5be1e5ebec7d5bd14f71427d1e84f3dd0314c0f7b2291e5b200ac8c7c3b92560405160405180910390a45b505b50505f90815260046020526040902080546001600160a01b0319166001600160a01b0392909216919091179055565b6115db8383836116db565b61080c576001600160a01b03831661160957604051637e27328960e01b815260048101829052602401610646565b60405163177e802f60e01b81526001600160a01b038316600482015260248101829052604401610646565b61163e838361173c565b61080c335f85858561129e565b60605f6116578361179d565b60010190505f8167ffffffffffffffff81111561167657611676611a87565b6040519080825280601f01601f1916602001820160405280156116a0576020820181803683370190505b5090508181016020015b5f19016f181899199a1a9b1b9c1cb0b131b232b360811b600a86061a8153600a85049450846116aa57509392505050565b5f6001600160a01b03831615801590610dbb5750826001600160a01b0316846001600160a01b0316148061171457506117148484610dc3565b80610dbb5750505f908152600460205260409020546001600160a01b03908116911614919050565b6001600160a01b03821661176557604051633250574960e11b81525f6004820152602401610646565b5f61177183835f610fff565b90506001600160a01b0381161561080c576040516339e3563760e11b81525f6004820152602401610646565b5f8072184f03e93ff9f4daa797ed6e38ed64bf6a1f0160401b83106117db5772184f03e93ff9f4daa797ed6e38ed64bf6a1f0160401b830492506040015b6d04ee2d6d415b85acef81000000008310611807576d04ee2d6d415b85acef8100000000830492506020015b662386f26fc10000831061182557662386f26fc10000830492506010015b6305f5e100831061183d576305f5e100830492506008015b612710831061185157612710830492506004015b60648310611863576064830492506002015b600a83106104035760010192915050565b6001600160e01b031981168114610e2a575f80fd5b5f60208284031215611899575f80fd5b81356114c581611874565b5f5b838110156118be5781810151838201526020016118a6565b50505f910152565b5f81518084526118dd8160208601602086016118a4565b601f01601f19169290920160200192915050565b602081525f6114c560208301846118c6565b5f60208284031215611913575f80fd5b5035919050565b80356001600160a01b0381168114611930575f80fd5b919050565b5f8060408385031215611946575f80fd5b61194f8361191a565b946020939093013593505050565b60e081525f61196f60e083018a6118c6565b886020840152828103604084015261198781896118c6565b6060840197909752505060808101939093526001600160a01b039190911660a0830152151560c0909101529392505050565b5f805f606084860312156119cb575f80fd5b6119d48461191a565b92506119e26020850161191a565b9150604084013590509250925092565b5f60208284031215611a02575f80fd5b6114c58261191a565b602080825282518282018190525f9190848201906040850190845b81811015611a4257835183529284019291840191600101611a26565b50909695505050505050565b5f8060408385031215611a5f575f80fd5b611a688361191a565b915060208301358015158114611a7c575f80fd5b809150509250929050565b634e487b7160e01b5f52604160045260245ffd5b5f67ffffffffffffffff80841115611ab557611ab5611a87565b604051601f8501601f19908116603f01168101908282118183101715611add57611add611a87565b81604052809350858152868686011115611af5575f80fd5b858560208301375f602087830101525050509392505050565b5f82601f830112611b1d575f80fd5b6114c583833560208501611a9b565b5f805f805f8060c08789031215611b41575f80fd5b611b4a8761191a565b9550602087013567ffffffffffffffff80821115611b66575f80fd5b611b728a838b01611b0e565b9650604089013595506060890135915080821115611b8e575f80fd5b611b9a8a838b01611b0e565b94506080890135935060a0890135915080821115611bb6575f80fd5b50611bc389828a01611b0e565b9150509295509295509295565b602081525f825160e06020840152611bec6101008401826118c6565b9050602084015160408401526040840151601f19848303016060850152611c1382826118c6565b91505060608401516080840152608084015160a084015260018060a01b0360a08501511660c084015260c0840151151560e08401528091505092915050565b5f805f8060808587031215611c65575f80fd5b611c6e8561191a565b9350611c7c6020860161191a565b925060408501359150606085013567ffffffffffffffff811115611c9e575f80fd5b8501601f81018713611cae575f80fd5b611cbd87823560208401611a9b565b91505092959194509250565b5f8060408385031215611cda575f80fd5b611ce38361191a565b9150611cf16020840161191a565b90509250929050565b600181811c90821680611d0e57607f821691505b602082108103611d2c57634e487b7160e01b5f52602260045260245ffd5b50919050565b602080825260149082015273151bdad95b88191bd95cc81b9bdd08195e1a5cdd60621b604082015260600190565b634e487b7160e01b5f52601160045260245ffd5b8181038181111561040357610403611d60565b5f82611da157634e487b7160e01b5f52601260045260245ffd5b500490565b5f60018201611db757611db7611d60565b5060010190565b808202811582820484141761040357610403611d60565b8082018082111561040357610403611d60565b601f82111561080c57805f5260205f20601f840160051c81016020851015611e0d5750805b601f840160051c820191505b818110156113bf575f8155600101611e19565b815167ffffffffffffffff811115611e4657611e46611a87565b611e5a81611e548454611cfa565b84611de8565b602080601f831160018114611e8d575f8415611e765750858301515b5f19600386901b1c1916600185901b1785556113bd565b5f85815260208120601f198616915b82811015611ebb57888601518255948401946001909101908401611e9c565b5085821015611ed857878501515f19600388901b60f8161c191681555b5050505050600190811b01905550565b606081525f611efa60608301866118c6565b60208301949094525060400152919050565b5f8351611f1d8184602088016118a4565b835190830190611f318183602088016118a4565b01949350505050565b6001600160a01b03858116825284166020820152604081018390526080606082018190525f90611f6c908301846118c6565b9695505050505050565b5f60208284031215611f86575f80fd5b81516114c58161187456fea2646970667358221220934d34fa81d834f423ddfd6a4e3d6a8e5a8c5c978000fc49c2e9f4666c2adf1e64736f6c63430008180033",
  "linkReferences": {},
  "deployedLinkReferences": {}
}