{
  "_format": "hh-sol-artifact-1",
  "contractName": "SubscriptionManager",
  "sourceName": "contracts/SubscriptionManager.sol",
  "abi": [
    {
      "inputs": [],
      "stateMutability": "nonpayable",
      "type": "constructor"
    },
    {
      "anonymous": false,
      "inputs": [
        {
          "indexed": true,
          "internalType": "address",
          "name": "user",
          "type": "address"
        },
        {
          "indexed": true,
          "internalType": "uint256",
          "name": "subId",
          "type": "uint256"
        },
        {
          "indexed": false,
          "internalType": "uint256",
          "name": "renewalTime",
          "type": "uint256"
        },
        {
          "indexed": false,
          "internalType": "uint256",
          "name": "daysUntilRenewal",
          "type": "uint256"
        }
      ],
      "name": "RenewalAlert",
      "type": "event"
    },
    {
      "anonymous": false,
      "inputs": [
        {
          "indexed": true,
          "internalType": "address",
          "name": "user",
          "type": "address"
        },
        {
          "indexed": true,
          "internalType": "uint256",
          "name": "subId",
          "type": "uint256"
        },
        {
          "indexed": false,
          "internalType": "string",
          "name": "reason",
          "type": "string"
        }
      ],
      "name": "SubscriptionAutoCancelled",
      "type": "event"
    },
    {
      "anonymous": false,
      "inputs": [
        {
          "indexed": true,
          "internalType": "address",
          "name": "user",
          "type": "address"
        },
        {
          "indexed": true,
          "internalType": "uint256",
          "name": "subId",
          "type": "uint256"
        },
        {
          "indexed": false,
          "internalType": "string",
          "name": "name",
          "type": "string"
        },
        {
          "indexed": false,
          "internalType": "uint256",
          "name": "amount",
          "type": "uint256"
        },
        {
          "indexed": false,
          "internalType": "uint256",
          "name": "startTime",
          "type": "uint256"
        },
        {
          "indexed": false,
          "internalType": "uint256",
          "name": "duration",
          "type": "uint256"
        }
      ],
      "name": "SubscriptionCreated",
      "type": "event"
    },
    {
      "anonymous": false,
      "inputs": [
        {
          "indexed": true,
          "internalType": "address",
          "name": "user",
          "type": "address"
        },
        {
          "indexed": true,
          "internalType": "uint256",
          "name": "subId",
          "type": "uint256"
        }
      ],
      "name": "SubscriptionPaused",
      "type": "event"
    },
    {
      "anonymous": false,
      "inputs": [
        {
          "indexed": true,
          "internalType": "address",
          "name": "user",
          "type": "address"
        },
        {
          "indexed": true,
          "internalType": "uint256",
          "name": "subId",
          "type": "uint256"
        },
        {
          "indexed": false,
          "internalType": "uint256",
          "name": "nextRenewalTime",
          "type": "uint256"
        }
      ],
      "name": "SubscriptionRenewed",
      "type": "event"
    },
    {
      "anonymous": false,
      "inputs": [
        {
          "indexed": true,
          "internalType": "address",
          "name": "user",
          "type": "address"
        },
        {
          "indexed": true,
          "internalType": "uint256",
          "name": "subId",
          "type": "uint256"
        },
        {
          "indexed": false,
          "internalType": "uint256",
          "name": "newNextRenewal",
          "type": "uint256"
        }
      ],
      "name": "SubscriptionResumed",
      "type": "event"
    },
    {
      "inputs": [
        {
          "internalType": "address",
          "name": "user",
          "type": "address"
        },
        {
          "internalType": "uint256",
          "name": "subId",
          "type": "uint256"
        }
      ],
      "name": "autoCancel",
      "outputs": [],
      "stateMutability": "nonpayable",
      "type": "function"
    },
    {
      "inputs": [
        {
          "internalType": "address",
          "name": "user",
          "type": "address"
        },
        {
          "internalType": "uint256",
          "name": "subId",
          "type": "uint256"
        },
        {
          "internalType": "uint256",
          "name": "alertWindow",
          "type": "uint256"
        }
      ],
      "name": "checkRenewalAlert",
      "outputs": [
        {
          "internalType": "bool",
          "name": "shouldAlert",
          "type": "bool"
        }
      ],
      "stateMutability": "nonpayable",
      "type": "function"
    },
    {
      "inputs": [
        {
          "internalType": "string",
          "name": "name",
          "type": "string"
        },
        {
          "internalType": "uint256",
          "name": "amount",
          "type": "uint256"
        },
        {
          "internalType": "uint256",
          "name": "durationDays",
          "type": "uint256"
        }
      ],
      "name": "createSubscription",
      "outputs": [
        {
          "internalType": "uint256",
          "name": "subId",
          "type": "uint256"
        }
      ],
      "stateMutability": "nonpayable",
      "type": "function"
    },
    {
      "inputs": [
        {
          "internalType": "address",
          "name": "user",
          "type": "address"
        },
        {
          "internalType": "uint256",
          "name": "subId",
          "type": "uint256"
        }
      ],
      "name": "getSubscription",
      "outputs": [
        {
          "components": [
            {
              "internalType": "string",
              "name": "name",
              "type": "string"
            },
            {
              "internalType": "uint256",
              "name": "amount",
              "type": "uint256"
            },
            {
              "internalType": "uint256",
              "name": "startTime",
              "type": "uint256"
            },
            {
              "internalType": "uint256",
              "name": "duration",
              "type": "uint256"
            },
            {
              "internalType": "bool",
              "name": "active",
              "type": "bool"
            },
            {
              "internalType": "bool",
              "name": "paused",
              "type": "bool"
            }
          ],
          "internalType": "struct SubscriptionManager.Subscription",
          "name": "",
          "type": "tuple"
        }
      ],
      "stateMutability": "view",
      "type": "function"
    },
    {
      "inputs": [
        {
          "internalType": "address",
          "name": "user",
          "type": "address"
        },
        {
          "internalType": "uint256",
          "name": "subId",
          "type": "uint256"
        }
      ],
      "name": "isActive",
      "outputs": [
        {
          "internalType": "bool",
          "name": "",
          "type": "bool"
        }
      ],
      "stateMutability": "view",
      "type": "function"
    },
    {
      "inputs": [
        {
          "internalType": "address",
          "name": "user",
          "type": "address"
        },
        {
          "internalType": "uint256",
          "name": "subId",
          "type": "uint256"
        }
      ],
      "name": "isDurationExceeded",
      "outputs": [
        {
          "internalType": "bool",
          "name": "",
          "type": "bool"
        }
      ],
      "stateMutability": "view",
      "type": "function"
    },
    {
      "inputs": [],
      "name": "owner",
      "outputs": [
        {
          "internalType": "address",
          "name": "",
          "type": "address"
        }
      ],
      "stateMutability": "view",
      "type": "function"
    },
    {
      "inputs": [
        {
          "internalType": "uint256",
          "name": "subId",
          "type": "uint256"
        }
      ],
      "name": "pauseSubscription",
      "outputs": [],
      "stateMutability": "nonpayable",
      "type": "function"
    },
    {
      "inputs": [
        {
          "internalType": "uint256",
          "name": "subId",
          "type": "uint256"
        }
      ],
      "name": "resumeSubscription",
      "outputs": [],
      "stateMutability": "nonpayable",
      "type": "function"
    },
    {
      "inputs": [
        {
          "internalType": "address",
          "name": "",
          "type": "address"
        }
      ],
      "name": "subscriptionCount",
      "outputs": [
        {
          "internalType": "uint256",
          "name": "",
          "type": "uint256"
        }
      ],
      "stateMutability": "view",
      "type": "function"
    },
    {
      "inputs": [
        {
          "internalType": "address",
          "name": "",
          "type": "address"
        },
        {
          "internalType": "uint256",
          "name": "",
          "type": "uint256"
        }
      ],
      "name": "subscriptions",
      "outputs": [
        {
          "internalType": "string",
          "name": "name",
          "type": "string"
        },
        {
          "internalType": "uint256",
          "name": "amount",
          "type": "uint256"
        },
        {
          "internalType": "uint256",
          "name": "startTime",
          "type": "uint256"
        },
        {
          "internalType": "uint256",
          "name": "duration",
          "type": "uint256"
        },
        {
          "internalType": "bool",
          "name": "active",
          "type": "bool"
        },
        {
          "internalType": "bool",
          "name": "paused",
          "type": "bool"
        }
      ],
      "stateMutability": "view",
      "type": "function"
    }
  ],
  "bytecode": "0x608060405234801561000f575f80fd5b505f80546001600160a01b031916331790556112488061002e5f395ff3fe608060405234801561000f575f80fd5b50600436106100a6575f3560e01c8063714999691161006e578063714999691461013f5780638da5cb5b1461016c578063ae7b697714610196578063af0347ad146101a9578063d266e83b146101bc578063f473f89e146101cf575f80fd5b8063023a584e146100aa5780633809d92c146100bf5780633ae9a18e146100e757806341f23f0a14610107578063623da3d11461011a575b5f80fd5b6100bd6100b8366004610cdc565b6101e2565b005b6100d26100cd366004610d0e565b610348565b60405190151581526020015b60405180910390f35b6100fa6100f5366004610d0e565b6103c5565b6040516100de9190610d83565b6100bd610115366004610cdc565b61053a565b61012d610128366004610d0e565b61067f565b6040516100de96959493929190610de0565b61015e61014d366004610e1f565b60026020525f908152604090205481565b6040519081526020016100de565b5f5461017e906001600160a01b031681565b6040516001600160a01b0390911681526020016100de565b61015e6101a4366004610e53565b61074a565b6100bd6101b7366004610d0e565b610889565b6100d26101ca366004610d0e565b610a56565b6100d26101dd366004610f10565b610a86565b335f818152600260205260409020548290811061021a5760405162461bcd60e51b815260040161021190610f40565b60405180910390fd5b335f9081526001602090815260408083208684529091529020600481015460ff166102875760405162461bcd60e51b815260206004820152601f60248201527f537562736372697074696f6e4d616e616765723a206e6f7420616374697665006044820152606401610211565b6004810154610100900460ff166102e05760405162461bcd60e51b815260206004820152601f60248201527f537562736372697074696f6e4d616e616765723a206e6f7420706175736564006044820152606401610211565b60048101805461ff00191690555f6102fb4262278d00610f8b565b905084336001600160a01b03167ff97442dcb6baf2c518e41e3720c7ef93f0e11215c32290207c79178f54db74598360405161033991815260200190565b60405180910390a35050505050565b6001600160a01b0382165f908152600260205260408120548390839081106103825760405162461bcd60e51b815260040161021190610f40565b6001600160a01b0385165f9081526001602090815260408083208784529091529020600381015460028201546103b89190610f8b565b4210159695505050505050565b6103fd6040518060c00160405280606081526020015f81526020015f81526020015f81526020015f151581526020015f151581525090565b6001600160a01b0383165f908152600260205260409020548390839081106104375760405162461bcd60e51b815260040161021190610f40565b6001600160a01b0385165f90815260016020908152604080832087845290915290819020815160c0810190925280548290829061047390610f9e565b80601f016020809104026020016040519081016040528092919081815260200182805461049f90610f9e565b80156104ea5780601f106104c1576101008083540402835291602001916104ea565b820191905f5260205f20905b8154815290600101906020018083116104cd57829003601f168201915b505050918352505060018201546020820152600282015460408201526003820154606082015260049091015460ff8082161515608084015261010090910416151560a09091015295945050505050565b335f81815260026020526040902054829081106105695760405162461bcd60e51b815260040161021190610f40565b335f9081526001602090815260408083208684529091529020600481015460ff166105d65760405162461bcd60e51b815260206004820152601f60248201527f537562736372697074696f6e4d616e616765723a206e6f7420616374697665006044820152606401610211565b6004810154610100900460ff161561063c5760405162461bcd60e51b815260206004820152602360248201527f537562736372697074696f6e4d616e616765723a20616c7265616479207061756044820152621cd95960ea1b6064820152608401610211565b60048101805461ff001916610100179055604051849033907f0f4b138ba6f86b6732dd5962f2f8427f2c42abaf94b1be851f969f676c47e1a7905f90a350505050565b600160209081525f92835260408084209091529082529020805481906106a490610f9e565b80601f01602080910402602001604051908101604052809291908181526020018280546106d090610f9e565b801561071b5780601f106106f25761010080835404028352916020019161071b565b820191905f5260205f20905b8154815290600101906020018083116106fe57829003601f168201915b505050506001830154600284015460038501546004909501549394919390925060ff8082169161010090041686565b5f806107598362015180610fd6565b335f81815260026020908152604080832054815160c0810183528b81528084018b9052428184018190526060820188905260016080830181905260a083018790529686529584528285208286529093529220815192965093945091929081906107c29082611039565b5060208281015160018301556040808401516002808501919091556060850151600385015560808501516004909401805460a09096015115156101000261ff00199515159590951661ffff199096169590951793909317909355335f908152919052908120805491610833836110f9565b919050555082336001600160a01b03167fd78bbc64da689951e39e14cc84cd4c6d40a9e2d91a288155518667cc9b22b89c888885876040516108789493929190611111565b60405180910390a350509392505050565b6001600160a01b0382165f908152600260205260409020548290829081106108c35760405162461bcd60e51b815260040161021190610f40565b6001600160a01b0384165f9081526001602090815260408083208684529091529020600481015460ff166109475760405162461bcd60e51b815260206004820152602560248201527f537562736372697074696f6e4d616e616765723a20616c726561647920696e61604482015264637469766560d81b6064820152608401610211565b5f8160030154826002015461095c9190610f8b565b9050804210156109c55760405162461bcd60e51b815260206004820152602e60248201527f537562736372697074696f6e4d616e616765723a206475726174696f6e206e6f60448201526d1d081e595d08195e18d95959195960921b6064820152608401610211565b60048201805460ff19169055600382015485906001600160a01b038816907ff86742cbfe0fe39be87d32050ed89f5dca8b09f6427a14b1ac8fb2d607a413de90610a1c90610a17906201518090611153565b610bd6565b604051602001610a2c9190611166565b60408051601f1981840301815290829052610a46916111b1565b60405180910390a3505050505050565b6001600160a01b0382165f90815260016020908152604080832084845290915290206004015460ff165b92915050565b6001600160a01b0383165f90815260026020526040812054849084908110610ac05760405162461bcd60e51b815260040161021190610f40565b6001600160a01b0386165f9081526001602090815260408083208884529091529020600481015460ff161580610aff57506004810154610100900460ff165b15610b0d575f935050610bcd565b5f816002015462278d00610b219190610f8b565b90505f868211610b31575f610b3b565b610b3b87836111c3565b9050804210158015610b4c57508142105b15610bc6575f62015180610b6042856111c3565b610b6a9190611153565b9050888a6001600160a01b03167fc51c7a629583c6b7b9674b48ab3f7350d37f441bcffcb9e11815af9f9d72bea98584604051610bb1929190918252602082015260400190565b60405180910390a36001965050505050610bcd565b5f95505050505b50509392505050565b6060815f03610bfc5750506040805180820190915260018152600360fc1b602082015290565b815f5b8115610c255780610c0f816110f9565b9150610c1e9050600a83611153565b9150610bff565b5f8167ffffffffffffffff811115610c3f57610c3f610e3f565b6040519080825280601f01601f191660200182016040528015610c69576020820181803683370190505b5090505b8415610cd45781610c7d816111d6565b9250610c8c9050600a866111eb565b610c97906030610f8b565b60f81b818381518110610cac57610cac6111fe565b60200101906001600160f81b03191690815f1a905350610ccd600a86611153565b9450610c6d565b949350505050565b5f60208284031215610cec575f80fd5b5035919050565b80356001600160a01b0381168114610d09575f80fd5b919050565b5f8060408385031215610d1f575f80fd5b610d2883610cf3565b946020939093013593505050565b5f5b83811015610d50578181015183820152602001610d38565b50505f910152565b5f8151808452610d6f816020860160208601610d36565b601f01601f19169290920160200192915050565b602081525f825160c06020840152610d9e60e0840182610d58565b90506020840151604084015260408401516060840152606084015160808401526080840151151560a084015260a0840151151560c08401528091505092915050565b60c081525f610df260c0830189610d58565b6020830197909752506040810194909452606084019290925215156080830152151560a090910152919050565b5f60208284031215610e2f575f80fd5b610e3882610cf3565b9392505050565b634e487b7160e01b5f52604160045260245ffd5b5f805f60608486031215610e65575f80fd5b833567ffffffffffffffff80821115610e7c575f80fd5b818601915086601f830112610e8f575f80fd5b813581811115610ea157610ea1610e3f565b604051601f8201601f19908116603f01168101908382118183101715610ec957610ec9610e3f565b81604052828152896020848701011115610ee1575f80fd5b826020860160208301375f60208483010152809750505050505060208401359150604084013590509250925092565b5f805f60608486031215610f22575f80fd5b610f2b84610cf3565b95602085013595506040909401359392505050565b6020808252601e908201527f537562736372697074696f6e4d616e616765723a206e6f7420666f756e640000604082015260600190565b634e487b7160e01b5f52601160045260245ffd5b80820180821115610a8057610a80610f77565b600181811c90821680610fb257607f821691505b602082108103610fd057634e487b7160e01b5f52602260045260245ffd5b50919050565b8082028115828204841417610a8057610a80610f77565b601f82111561103457805f5260205f20601f840160051c810160208510156110125750805b601f840160051c820191505b81811015611031575f815560010161101e565b50505b505050565b815167ffffffffffffffff81111561105357611053610e3f565b611067816110618454610f9e565b84610fed565b602080601f83116001811461109a575f84156110835750858301515b5f19600386901b1c1916600185901b1785556110f1565b5f85815260208120601f198616915b828110156110c8578886015182559484019460019091019084016110a9565b50858210156110e557878501515f19600388901b60f8161c191681555b505060018460011b0185555b505050505050565b5f6001820161110a5761110a610f77565b5060010190565b608081525f6111236080830187610d58565b6020830195909552506040810192909252606090910152919050565b634e487b7160e01b5f52601260045260245ffd5b5f826111615761116161113f565b500490565b6b0223ab930ba34b7b71037b3160a51b81525f825161118c81600c850160208701610d36565b6d0819185e5cc8195e18d95959195960921b600c939091019283015250601a01919050565b602081525f610e386020830184610d58565b81810381811115610a8057610a80610f77565b5f816111e4576111e4610f77565b505f190190565b5f826111f9576111f961113f565b500690565b634e487b7160e01b5f52603260045260245ffdfea26469706673582212209ba3986f568c92490ef73f6d2c56c99bbcbb5f6e5bcf16f3f986031f0e34d07364736f6c63430008180033",
  "linkReferences": {},
  "deployedLinkReferences": {}
}